2016020000030IMNBCA0000OCT09C85583 4   001 34 45900          NEED A CRIME AGAINST PERSON OR ROBBERY FOR DATA TO BE ENTERED                  FLOPPY
2016020000000IMNBCA0000OCT09C85583         34 07000          THE CORRESPONDING OFFENDER RECORD MUST BE PRESENT                              FLOPPY
2016020000038IMNBCA0000OCT10062207 3      715 390            ILLOGICAL PROPERTY DESCRIPTION FOR THE OFFENSE(S) SUBMITTED                    FLOPPY
2016020000000IMNBCA0000OCT10062207         14 0817           THIS PROPERTY LOSS CODE CAN NOT EXIST WITH THE OFFENSES SUBMITTED              FLOPPY
2016020000083IMNBCA0000OCT90A0010014   001 34 45800          VICTIM TYPE(25) MUST BE 'I' OR 'L' FOR DATA TO BE ENTERED                      FLOPPY
2016020000083IMNBCA0000OCT90A0010014   001 34 45900          NEED A CRIME AGAINST PERSON OR ROBBERY FOR DATA TO BE ENTERED                  FLOPPY
2016020000000IMNBCA0000OCT90A001001        34 07000          THE CORRESPONDING OFFENDER RECORD MUST BE PRESENT                              FLOPPY
2016020000091IMNBCA0000OCT90B0010023      715 390            ILLOGICAL PROPERTY DESCRIPTION FOR THE OFFENSE(S) SUBMITTED                    FLOPPY
2016020000000IMNBCA0000OCT90B001002        14 0817           THIS PROPERTY LOSS CODE CAN NOT EXIST WITH THE OFFENSES SUBMITTED              FLOPPY
2016020000099IMN0500200OCTDEFE215771       03 17320150901    INCIDENT DATE CAN NOT BE BEFORE DATE ORI WENT IBR 20151001                     FLOPPY
2016020000119IMNBCA0000OCTDWK9321  4   001 34 45900          NEED A CRIME AGAINST PERSON OR ROBBERY FOR DATA TO BE ENTERED                  FLOPPY
2016020000000IMNBCA0000OCTDWK9321          34 07000          THE CORRESPONDING OFFENDER RECORD MUST BE PRESENT                              FLOPPY
2016020000125IMNBCA0000OCTDWK9322  4   001 34 45900          NEED A CRIME AGAINST PERSON OR ROBBERY FOR DATA TO BE ENTERED                  FLOPPY
2016020000000IMNBCA0000OCTDWK9322          34 07000          THE CORRESPONDING OFFENDER RECORD MUST BE PRESENT                              FLOPPY
2016020000131IMNBCA0000OCTDWK9324  4   001 34 45900          NEED A CRIME AGAINST PERSON OR ROBBERY FOR DATA TO BE ENTERED                  FLOPPY
2016020000000IMNBCA0000OCTDWK9324          34 07000          THE CORRESPONDING OFFENDER RECORD MUST BE PRESENT                              FLOPPY
2016020000137IMNBCA0000OCTEXTRA28  4   001 34 45900          NEED A CRIME AGAINST PERSON OR ROBBERY FOR DATA TO BE ENTERED                  FLOPPY
2016020000000IMNBCA0000OCTEXTRA28          34 07000          THE CORRESPONDING OFFENDER RECORD MUST BE PRESENT                              FLOPPY
2016020000142IMNBCA0000OCTMULTI00041          056            INCIDENT NUMBER ALREADY ON FILE -- PREVIOUSLY ADDED TO FILE ON 02/24/2016      FLOPPY
2016020000152IMNBCA0000OCTMULTI00051          056            INCIDENT NUMBER ALREADY ON FILE -- PREVIOUSLY ADDED TO FILE ON 02/24/2016      FLOPPY
2016020000174IMNBCA0000OCTMULTI00073      715 390            ILLOGICAL PROPERTY DESCRIPTION FOR THE OFFENSE(S) SUBMITTED                    FLOPPY
2016020000000IMNBCA0000OCTMULTI0007        14 0817           THIS PROPERTY LOSS CODE CAN NOT EXIST WITH THE OFFENSES SUBMITTED              FLOPPY
2016020000272IMNBCA0000OCTOPAT9192 4   001 34 45900          NEED A CRIME AGAINST PERSON OR ROBBERY FOR DATA TO BE ENTERED                  FLOPPY
2016020000000IMNBCA0000OCTOPAT9192         34 07000          THE CORRESPONDING OFFENDER RECORD MUST BE PRESENT                              FLOPPY
2016020000279IMNBCA0000OCTOPAT9392 4   001 34 45900          NEED A CRIME AGAINST PERSON OR ROBBERY FOR DATA TO BE ENTERED                  FLOPPY
2016020000000IMNBCA0000OCTOPAT9392         34 07000          THE CORRESPONDING OFFENDER RECORD MUST BE PRESENT                              FLOPPY
2016020000284IMNBCA0000OCTPAT0392994   001 34 45800          VICTIM TYPE(25) MUST BE 'I' OR 'L' FOR DATA TO BE ENTERED                      FLOPPY
2016020000284IMNBCA0000OCTPAT0392994   001 34 45900          NEED A CRIME AGAINST PERSON OR ROBBERY FOR DATA TO BE ENTERED                  FLOPPY
2016020000000IMNBCA0000OCTPAT039299        34 07000          THE CORRESPONDING OFFENDER RECORD MUST BE PRESENT                              FLOPPY
2016020000293IMNBCA0000OCTPAT04932 4   001 34 45800          VICTIM TYPE(25) MUST BE 'I' OR 'L' FOR DATA TO BE ENTERED                      FLOPPY
2016020000293IMNBCA0000OCTPAT04932 4   001 34 45900          NEED A CRIME AGAINST PERSON OR ROBBERY FOR DATA TO BE ENTERED                  FLOPPY
2016020000000IMNBCA0000OCTPAT04932         34 07000          THE CORRESPONDING OFFENDER RECORD MUST BE PRESENT                              FLOPPY
2016020000299IMNBCA0000OCTPAT0982994   001 34 45800          VICTIM TYPE(25) MUST BE 'I' OR 'L' FOR DATA TO BE ENTERED                      FLOPPY
2016020000299IMNBCA0000OCTPAT0982994   001 34 45900          NEED A CRIME AGAINST PERSON OR ROBBERY FOR DATA TO BE ENTERED                  FLOPPY
2016020000000IMNBCA0000OCTPAT098299        34 07000          THE CORRESPONDING OFFENDER RECORD MUST BE PRESENT                              FLOPPY
2016020000309IMNBCA0000OCTPAT12209 4   001 34 45800          VICTIM TYPE(25) MUST BE 'I' OR 'L' FOR DATA TO BE ENTERED                      FLOPPY
2016020000309IMNBCA0000OCTPAT12209 4   001 34 45900          NEED A CRIME AGAINST PERSON OR ROBBERY FOR DATA TO BE ENTERED                  FLOPPY
2016020000000IMNBCA0000OCTPAT12209         34 07000          THE CORRESPONDING OFFENDER RECORD MUST BE PRESENT                              FLOPPY
2016020000315IMNBCA0000OCTPAT1221  4   001 34 45800          VICTIM TYPE(25) MUST BE 'I' OR 'L' FOR DATA TO BE ENTERED                      FLOPPY
2016020000315IMNBCA0000OCTPAT1221  4   001 34 45900          NEED A CRIME AGAINST PERSON OR ROBBERY FOR DATA TO BE ENTERED                  FLOPPY
2016020000000IMNBCA0000OCTPAT1221          34 07000          THE CORRESPONDING OFFENDER RECORD MUST BE PRESENT                              FLOPPY
2016020000321IMNBCA0000OCTPAT1275914   001 34 45900          NEED A CRIME AGAINST PERSON OR ROBBERY FOR DATA TO BE ENTERED                  FLOPPY
2016020000000IMNBCA0000OCTPAT127591        34 07000          THE CORRESPONDING OFFENDER RECORD MUST BE PRESENT                              FLOPPY
2016020000327IMNBCA0000OCTPAT1648014   001 34 45900          NEED A CRIME AGAINST PERSON OR ROBBERY FOR DATA TO BE ENTERED                  FLOPPY
2016020000000IMNBCA0000OCTPAT164801        34 07000          THE CORRESPONDING OFFENDER RECORD MUST BE PRESENT                              FLOPPY
2016020000334IMNBCA0000OCTPAT1778914   001 34 45900          NEED A CRIME AGAINST PERSON OR ROBBERY FOR DATA TO BE ENTERED                  FLOPPY
2016020000000IMNBCA0000OCTPAT177891        34 07000          THE CORRESPONDING OFFENDER RECORD MUST BE PRESENT                              FLOPPY
2016020000340IMNBCA0000OCTPAT2015014   001 34 45800          VICTIM TYPE(25) MUST BE 'I' OR 'L' FOR DATA TO BE ENTERED                      FLOPPY
2016020000340IMNBCA0000OCTPAT2015014   001 34 45900          NEED A CRIME AGAINST PERSON OR ROBBERY FOR DATA TO BE ENTERED                  FLOPPY
2016020000000IMNBCA0000OCTPAT201501        34 07000          THE CORRESPONDING OFFENDER RECORD MUST BE PRESENT                              FLOPPY
2016020000346IMNBCA0000OCTPAT21179 4   001 34 45900          NEED A CRIME AGAINST PERSON OR ROBBERY FOR DATA TO BE ENTERED                  FLOPPY
2016020000000IMNBCA0000OCTPAT21179         34 07000          THE CORRESPONDING OFFENDER RECORD MUST BE PRESENT                              FLOPPY
2016020000352IMNBCA0000OCTPAT21812 4   001 34 45800          VICTIM TYPE(25) MUST BE 'I' OR 'L' FOR DATA TO BE ENTERED                      FLOPPY
2016020000352IMNBCA0000OCTPAT21812 4   001 34 45900          NEED A CRIME AGAINST PERSON OR ROBBERY FOR DATA TO BE ENTERED                  FLOPPY
2016020000362IMNBCA0000OCTPAT23828 4   001 34 45900          NEED A CRIME AGAINST PERSON OR ROBBERY FOR DATA TO BE ENTERED                  FLOPPY
2016020000367IMNBCA0000OCTPAT23872 4   001 34 45900          NEED A CRIME AGAINST PERSON OR ROBBERY FOR DATA TO BE ENTERED                  FLOPPY
2016020000380IMNBCA0000OCTPAT29329 4   001 34 45900          NEED A CRIME AGAINST PERSON OR ROBBERY FOR DATA TO BE ENTERED                  FLOPPY
2016020000000IMNBCA0000OCTPAT29329         34 07000          THE CORRESPONDING OFFENDER RECORD MUST BE PRESENT                              FLOPPY
2016020000387IMNBCA0000OCTPAT29334 4   001 34 45900          NEED A CRIME AGAINST PERSON OR ROBBERY FOR DATA TO BE ENTERED                  FLOPPY
2016020000000IMNBCA0000OCTPAT29334         34 07000          THE CORRESPONDING OFFENDER RECORD MUST BE PRESENT                              FLOPPY
2016020000394IMNBCA0000OCTPAT29355 4   001 34 45900          NEED A CRIME AGAINST PERSON OR ROBBERY FOR DATA TO BE ENTERED                  FLOPPY
2016020000000IMNBCA0000OCTPAT29355         34 07000          THE CORRESPONDING OFFENDER RECORD MUST BE PRESENT                              FLOPPY
2016020000401IMNBCA0000OCTPAT29392 4   001 34 45900          NEED A CRIME AGAINST PERSON OR ROBBERY FOR DATA TO BE ENTERED                  FLOPPY
2016020000000IMNBCA0000OCTPAT29392         34 07000          THE CORRESPONDING OFFENDER RECORD MUST BE PRESENT                              FLOPPY
2016020000408IMNBCA0000OCTPAT2947954   001 34 45900          NEED A CRIME AGAINST PERSON OR ROBBERY FOR DATA TO BE ENTERED                  FLOPPY
2016020000000IMNBCA0000OCTPAT294795        34 07000          THE CORRESPONDING OFFENDER RECORD MUST BE PRESENT                              FLOPPY
2016020000419IMNBCA0000OCTPAT3781114   001 34 45900          NEED A CRIME AGAINST PERSON OR ROBBERY FOR DATA TO BE ENTERED                  FLOPPY
2016020000000IMNBCA0000OCTPAT378111        34 07000          THE CORRESPONDING OFFENDER RECORD MUST BE PRESENT                              FLOPPY
2016020000426IMNBCA0000OCTPAT3781234   001 34 45900          NEED A CRIME AGAINST PERSON OR ROBBERY FOR DATA TO BE ENTERED                  FLOPPY
2016020000000IMNBCA0000OCTPAT378123        34 07000          THE CORRESPONDING OFFENDER RECORD MUST BE PRESENT                              FLOPPY
2016020000435IMNBCA0000OCTPAT54932 4   001 34 45800          VICTIM TYPE(25) MUST BE 'I' OR 'L' FOR DATA TO BE ENTERED                      FLOPPY
2016020000435IMNBCA0000OCTPAT54932 4   001 34 45900          NEED A CRIME AGAINST PERSON OR ROBBERY FOR DATA TO BE ENTERED                  FLOPPY
2016020000000IMNBCA0000OCTPAT54932         34 07000          THE CORRESPONDING OFFENDER RECORD MUST BE PRESENT                              FLOPPY
2016020000440IMNBCA0000OCTPAT5781234   001 34 45900          NEED A CRIME AGAINST PERSON OR ROBBERY FOR DATA TO BE ENTERED                  FLOPPY
2016020000000IMNBCA0000OCTPAT578123        34 07000          THE CORRESPONDING OFFENDER RECORD MUST BE PRESENT                              FLOPPY
2016020000445IMNBCA0000OCTPAT5786584   001 34 45900          NEED A CRIME AGAINST PERSON OR ROBBERY FOR DATA TO BE ENTERED                  FLOPPY
2016020000000IMNBCA0000OCTPAT578658        34 07000          THE CORRESPONDING OFFENDER RECORD MUST BE PRESENT                              FLOPPY
2016020000450IMNBCA0000OCTPAT70C   4   001 34 45800          VICTIM TYPE(25) MUST BE 'I' OR 'L' FOR DATA TO BE ENTERED                      FLOPPY
2016020000450IMNBCA0000OCTPAT70C   4   001 34 45900          NEED A CRIME AGAINST PERSON OR ROBBERY FOR DATA TO BE ENTERED                  FLOPPY
2016020000000IMNBCA0000OCTPAT70C           34 07000          THE CORRESPONDING OFFENDER RECORD MUST BE PRESENT                              FLOPPY
2016020000456IMNBCA0000OCTPAT7589454   001 34 45900          NEED A CRIME AGAINST PERSON OR ROBBERY FOR DATA TO BE ENTERED                  FLOPPY
2016020000000IMNBCA0000OCTPAT758945        34 07000          THE CORRESPONDING OFFENDER RECORD MUST BE PRESENT                              FLOPPY
2016020000462IMNBCA0000OCTPAT7781994   001 34 45900          NEED A CRIME AGAINST PERSON OR ROBBERY FOR DATA TO BE ENTERED                  FLOPPY
2016020000000IMNBCA0000OCTPAT778199        34 07000          THE CORRESPONDING OFFENDER RECORD MUST BE PRESENT                              FLOPPY
2016020000467IMNBCA0000OCTPAT7788  4   001 34 45900          NEED A CRIME AGAINST PERSON OR ROBBERY FOR DATA TO BE ENTERED                  FLOPPY
2016020000000IMNBCA0000OCTPAT7788          34 07000          THE CORRESPONDING OFFENDER RECORD MUST BE PRESENT                              FLOPPY
2016020000472IMNBCA0000OCTPAT7789234   001 34 45900          NEED A CRIME AGAINST PERSON OR ROBBERY FOR DATA TO BE ENTERED                  FLOPPY
2016020000000IMNBCA0000OCTPAT778923        34 07000          THE CORRESPONDING OFFENDER RECORD MUST BE PRESENT                              FLOPPY
2016020000478IMNBCA0000OCTPAT7793924   001 34 45900          NEED A CRIME AGAINST PERSON OR ROBBERY FOR DATA TO BE ENTERED                  FLOPPY
2016020000491IMNBCA0000OCTPAT8345284   001 34 45900          NEED A CRIME AGAINST PERSON OR ROBBERY FOR DATA TO BE ENTERED                  FLOPPY
2016020000501IMNBCA0000OCTPAT8764  4   001 34 45900          NEED A CRIME AGAINST PERSON OR ROBBERY FOR DATA TO BE ENTERED                  FLOPPY
2016020000506IMNBCA0000OCTPAT8892914   001 34 45900          NEED A CRIME AGAINST PERSON OR ROBBERY FOR DATA TO BE ENTERED                  FLOPPY
2016020000000IMNBCA0000OCTPAT889291        34 07000          THE CORRESPONDING OFFENDER RECORD MUST BE PRESENT                              FLOPPY
2016020000522IMNBCA0000OCTPAT92939 4   001 34 45900          NEED A CRIME AGAINST PERSON OR ROBBERY FOR DATA TO BE ENTERED                  FLOPPY
2016020000000IMNBCA0000OCTPAT92939         34 07000          THE CORRESPONDING OFFENDER RECORD MUST BE PRESENT                              FLOPPY
2016020000530IMNBCA0000OCTPAT9293924   001 34 45900          NEED A CRIME AGAINST PERSON OR ROBBERY FOR DATA TO BE ENTERED                  FLOPPY
2016020000000IMNBCA0000OCTPAT929392        34 07000          THE CORRESPONDING OFFENDER RECORD MUST BE PRESENT                              FLOPPY
2016020000536IMNBCA0000OCTPAT92969 4   001 34 45900          NEED A CRIME AGAINST PERSON OR ROBBERY FOR DATA TO BE ENTERED                  FLOPPY
2016020000000IMNBCA0000OCTPAT92969         34 07000          THE CORRESPONDING OFFENDER RECORD MUST BE PRESENT                              FLOPPY
2016020000542IMNBCA0000OCTPAT93226 4   001 34 45800          VICTIM TYPE(25) MUST BE 'I' OR 'L' FOR DATA TO BE ENTERED                      FLOPPY
2016020000542IMNBCA0000OCTPAT93226 4   001 34 45900          NEED A CRIME AGAINST PERSON OR ROBBERY FOR DATA TO BE ENTERED                  FLOPPY
2016020000000IMNBCA0000OCTPAT93226         34 07000          THE CORRESPONDING OFFENDER RECORD MUST BE PRESENT                              FLOPPY
2016020000547IMNBCA0000OCTPAT9341  4   001 34 45800          VICTIM TYPE(25) MUST BE 'I' OR 'L' FOR DATA TO BE ENTERED                      FLOPPY
2016020000547IMNBCA0000OCTPAT9341  4   001 34 45900          NEED A CRIME AGAINST PERSON OR ROBBERY FOR DATA TO BE ENTERED                  FLOPPY
2016020000000IMNBCA0000OCTPAT9341          34 07000          THE CORRESPONDING OFFENDER RECORD MUST BE PRESENT                              FLOPPY
2016020000557IMNBCA0000OCTPAT93828 4   001 34 45800          VICTIM TYPE(25) MUST BE 'I' OR 'L' FOR DATA TO BE ENTERED                      FLOPPY
2016020000557IMNBCA0000OCTPAT93828 4   001 34 45900          NEED A CRIME AGAINST PERSON OR ROBBERY FOR DATA TO BE ENTERED                  FLOPPY
2016020000000IMNBCA0000OCTPAT93828         34 07000          THE CORRESPONDING OFFENDER RECORD MUST BE PRESENT                              FLOPPY
2016020000563IMNBCA0000OCTPAT9391  4   001 34 45900          NEED A CRIME AGAINST PERSON OR ROBBERY FOR DATA TO BE ENTERED                  FLOPPY
2016020000000IMNBCA0000OCTPAT9391          34 07000          THE CORRESPONDING OFFENDER RECORD MUST BE PRESENT                              FLOPPY
2016020000570IMNBCA0000OCTPAT93922 4   001 34 45900          NEED A CRIME AGAINST PERSON OR ROBBERY FOR DATA TO BE ENTERED                  FLOPPY
2016020000000IMNBCA0000OCTPAT93922         34 07000          THE CORRESPONDING OFFENDER RECORD MUST BE PRESENT                              FLOPPY
2016020000581IMNBCA0000OCTPAT9392914   001 34 45900          NEED A CRIME AGAINST PERSON OR ROBBERY FOR DATA TO BE ENTERED                  FLOPPY
2016020000000IMNBCA0000OCTPAT939291        34 07000          THE CORRESPONDING OFFENDER RECORD MUST BE PRESENT                              FLOPPY
2016020000587IMNBCA0000OCTPAT9447  4   001 34 45900          NEED A CRIME AGAINST PERSON OR ROBBERY FOR DATA TO BE ENTERED                  FLOPPY
2016020000592IMNBCA0000OCTPAT9449374   001 34 45900          NEED A CRIME AGAINST PERSON OR ROBBERY FOR DATA TO BE ENTERED                  FLOPPY
2016020000000IMNBCA0000OCTPAT947398        L 6656            THIS ARRESTEE EXCEEDED THE NUMBER OF OFFENDERS ON THE GROUP 'A' INCIDENT       FLOPPY
2016020000602IMNBCA0000OCTPAT94930 4   001 34 45800          VICTIM TYPE(25) MUST BE 'I' OR 'L' FOR DATA TO BE ENTERED                      FLOPPY
2016020000602IMNBCA0000OCTPAT94930 4   001 34 45900          NEED A CRIME AGAINST PERSON OR ROBBERY FOR DATA TO BE ENTERED                  FLOPPY
2016020000000IMNBCA0000OCTPAT94930         34 07000          THE CORRESPONDING OFFENDER RECORD MUST BE PRESENT                              FLOPPY
2016020000619IMNBCA0000OCTPAT94959 4   001 34 45900          NEED A CRIME AGAINST PERSON OR ROBBERY FOR DATA TO BE ENTERED                  FLOPPY
2016020000000IMNBCA0000OCTPAT94959         34 07000          THE CORRESPONDING OFFENDER RECORD MUST BE PRESENT                              FLOPPY
2016020000635IMNBCA0000OCTPAT97209 4   001 34 45800          VICTIM TYPE(25) MUST BE 'I' OR 'L' FOR DATA TO BE ENTERED                      FLOPPY
2016020000635IMNBCA0000OCTPAT97209 4   001 34 45900          NEED A CRIME AGAINST PERSON OR ROBBERY FOR DATA TO BE ENTERED                  FLOPPY
2016020000000IMNBCA0000OCTPAT97209         34 07000          THE CORRESPONDING OFFENDER RECORD MUST BE PRESENT                              FLOPPY
2016020000640IMNBCA0000OCTPAT98423 4   001 34 45800          VICTIM TYPE(25) MUST BE 'I' OR 'L' FOR DATA TO BE ENTERED                      FLOPPY
2016020000640IMNBCA0000OCTPAT98423 4   001 34 45900          NEED A CRIME AGAINST PERSON OR ROBBERY FOR DATA TO BE ENTERED                  FLOPPY
2016020000000IMNBCA0000OCTPAT98423         34 07000          THE CORRESPONDING OFFENDER RECORD MUST BE PRESENT                              FLOPPY
2016020000644IMNBCA0000OCTPAT98493 4   001 34 45800          VICTIM TYPE(25) MUST BE 'I' OR 'L' FOR DATA TO BE ENTERED                      FLOPPY
2016020000644IMNBCA0000OCTPAT98493 4   001 34 45900          NEED A CRIME AGAINST PERSON OR ROBBERY FOR DATA TO BE ENTERED                  FLOPPY
2016020000000IMNBCA0000OCTPAT98493         34 07000          THE CORRESPONDING OFFENDER RECORD MUST BE PRESENT                              FLOPPY
2016020000655IMNBCA0000OCTPAT98830 4   001 34 45800          VICTIM TYPE(25) MUST BE 'I' OR 'L' FOR DATA TO BE ENTERED                      FLOPPY
2016020000655IMNBCA0000OCTPAT98830 4   001 34 45900          NEED A CRIME AGAINST PERSON OR ROBBERY FOR DATA TO BE ENTERED                  FLOPPY
2016020000000IMNBCA0000OCTPAT98830         34 07000          THE CORRESPONDING OFFENDER RECORD MUST BE PRESENT                              FLOPPY
2016020000661IMNBCA0000OCTPAZ04832 4   001 34 45800          VICTIM TYPE(25) MUST BE 'I' OR 'L' FOR DATA TO BE ENTERED                      FLOPPY
2016020000661IMNBCA0000OCTPAZ04832 4   001 34 45900          NEED A CRIME AGAINST PERSON OR ROBBERY FOR DATA TO BE ENTERED                  FLOPPY
2016020000000IMNBCA0000OCTPAZ04832         34 07000          THE CORRESPONDING OFFENDER RECORD MUST BE PRESENT                              FLOPPY
2016020000667IMNBCA0000OCTPAZ08832 4   001 34 45800          VICTIM TYPE(25) MUST BE 'I' OR 'L' FOR DATA TO BE ENTERED                      FLOPPY
2016020000667IMNBCA0000OCTPAZ08832 4   001 34 45900          NEED A CRIME AGAINST PERSON OR ROBBERY FOR DATA TO BE ENTERED                  FLOPPY
2016020000000IMNBCA0000OCTPAZ08832         34 07000          THE CORRESPONDING OFFENDER RECORD MUST BE PRESENT                              FLOPPY
2016020000677IMNBCA0000OCTPAZ1278914   001 34 45900          NEED A CRIME AGAINST PERSON OR ROBBERY FOR DATA TO BE ENTERED                  FLOPPY
2016020000000IMNBCA0000OCTPAZ127891        34 07000          THE CORRESPONDING OFFENDER RECORD MUST BE PRESENT                              FLOPPY
2016020000683IMNBCA0000OCTPAZ12831 4   001 34 45800          VICTIM TYPE(25) MUST BE 'I' OR 'L' FOR DATA TO BE ENTERED                      FLOPPY
2016020000683IMNBCA0000OCTPAZ12831 4   001 34 45900          NEED A CRIME AGAINST PERSON OR ROBBERY FOR DATA TO BE ENTERED                  FLOPPY
2016020000000IMNBCA0000OCTPAZ12831         34 07000          THE CORRESPONDING OFFENDER RECORD MUST BE PRESENT                              FLOPPY
2016020000690IMNBCA0000OCTPAZ21812 4   001 34 45900          NEED A CRIME AGAINST PERSON OR ROBBERY FOR DATA TO BE ENTERED                  FLOPPY
2016020000000IMNBCA0000OCTPAZ21812         34 07000          THE CORRESPONDING OFFENDER RECORD MUST BE PRESENT                              FLOPPY
2016020000696IMNBCA0000OCTPAZ2222224   001 34 45800          VICTIM TYPE(25) MUST BE 'I' OR 'L' FOR DATA TO BE ENTERED                      FLOPPY
2016020000696IMNBCA0000OCTPAZ2222224   001 34 45900          NEED A CRIME AGAINST PERSON OR ROBBERY FOR DATA TO BE ENTERED                  FLOPPY
2016020000000IMNBCA0000OCTPAZ222222        34 07000          THE CORRESPONDING OFFENDER RECORD MUST BE PRESENT                              FLOPPY
2016020000706IMNBCA0000OCTPAZ2493  4   001 34 45800          VICTIM TYPE(25) MUST BE 'I' OR 'L' FOR DATA TO BE ENTERED                      FLOPPY
2016020000706IMNBCA0000OCTPAZ2493  4   001 34 45900          NEED A CRIME AGAINST PERSON OR ROBBERY FOR DATA TO BE ENTERED                  FLOPPY
2016020000000IMNBCA0000OCTPAZ2493          34 07000          THE CORRESPONDING OFFENDER RECORD MUST BE PRESENT                              FLOPPY
2016020000712IMNBCA0000OCTPAZ2824  4   001 34 45900          NEED A CRIME AGAINST PERSON OR ROBBERY FOR DATA TO BE ENTERED                  FLOPPY
2016020000000IMNBCA0000OCTPAZ2824          34 07000          THE CORRESPONDING OFFENDER RECORD MUST BE PRESENT                              FLOPPY
2016020000719IMNBCA0000OCTPAZ2887  4   001 34 45900          NEED A CRIME AGAINST PERSON OR ROBBERY FOR DATA TO BE ENTERED                  FLOPPY
2016020000000IMNBCA0000OCTPAZ2887          34 07000          THE CORRESPONDING OFFENDER RECORD MUST BE PRESENT                              FLOPPY
2016020000725IMNBCA0000OCTPAZ28965 3      517 30520151231    DAT20: 12/31/2015 IS EARLIER THAN DATE OF 02/16/2016                           FLOPPY
2016020000726IMNBCA0000OCTPAZ28965 4   001 34 45900          NEED A CRIME AGAINST PERSON OR ROBBERY FOR DATA TO BE ENTERED                  FLOPPY
2016020000000IMNBCA0000OCTPAZ28965         34 07000          THE CORRESPONDING OFFENDER RECORD MUST BE PRESENT                              FLOPPY
2016020000733IMNBCA0000OCTPAZ38    4   001 34 45900          NEED A CRIME AGAINST PERSON OR ROBBERY FOR DATA TO BE ENTERED                  FLOPPY
2016020000738IMNBCA0000OCTPAZ4492  4   001 34 45900          NEED A CRIME AGAINST PERSON OR ROBBERY FOR DATA TO BE ENTERED                  FLOPPY
2016020000000IMNBCA0000OCTPAZ4492          L 6656            THIS ARRESTEE EXCEEDED THE NUMBER OF OFFENDERS ON THE GROUP 'A' INCIDENT       FLOPPY
2016020000750IMNBCA0000OCTPAZ48962 4   001 34 45900          NEED A CRIME AGAINST PERSON OR ROBBERY FOR DATA TO BE ENTERED                  FLOPPY
2016020000000IMNBCA0000OCTPAZ48962         L 6656            THIS ARRESTEE EXCEEDED THE NUMBER OF OFFENDERS ON THE GROUP 'A' INCIDENT       FLOPPY
2016020000769IMNBCA0000OCTPAZ812   4   001 34 45900          NEED A CRIME AGAINST PERSON OR ROBBERY FOR DATA TO BE ENTERED                  FLOPPY
2016020000000IMNBCA0000OCTPAZ812           34 07000          THE CORRESPONDING OFFENDER RECORD MUST BE PRESENT                              FLOPPY
2016020000774IMNBCA0000OCTPAZ81223 4   001 34 45900          NEED A CRIME AGAINST PERSON OR ROBBERY FOR DATA TO BE ENTERED                  FLOPPY
2016020000000IMNBCA0000OCTPAZ81223         34 07000          THE CORRESPONDING OFFENDER RECORD MUST BE PRESENT                              FLOPPY
2016020000779IMNBCA0000OCTPAZ8290  4   001 34 45800          VICTIM TYPE(25) MUST BE 'I' OR 'L' FOR DATA TO BE ENTERED                      FLOPPY
2016020000779IMNBCA0000OCTPAZ8290  4   001 34 45900          NEED A CRIME AGAINST PERSON OR ROBBERY FOR DATA TO BE ENTERED                  FLOPPY
2016020000000IMNBCA0000OCTPAZ8290          34 07000          THE CORRESPONDING OFFENDER RECORD MUST BE PRESENT                              FLOPPY
2016020000785IMNBCA0000OCTPAZ832   4   001 34 45800          VICTIM TYPE(25) MUST BE 'I' OR 'L' FOR DATA TO BE ENTERED                      FLOPPY
2016020000785IMNBCA0000OCTPAZ832   4   001 34 45900          NEED A CRIME AGAINST PERSON OR ROBBERY FOR DATA TO BE ENTERED                  FLOPPY
2016020000000IMNBCA0000OCTPAZ832           34 07000          THE CORRESPONDING OFFENDER RECORD MUST BE PRESENT                              FLOPPY
2016020000791IMNBCA0000OCTPAZ84253 4   001 34 45900          NEED A CRIME AGAINST PERSON OR ROBBERY FOR DATA TO BE ENTERED                  FLOPPY
2016020000796IMNBCA0000OCTPAZ84829 4   001 34 45800          VICTIM TYPE(25) MUST BE 'I' OR 'L' FOR DATA TO BE ENTERED                      FLOPPY
2016020000796IMNBCA0000OCTPAZ84829 4   001 34 45900          NEED A CRIME AGAINST PERSON OR ROBBERY FOR DATA TO BE ENTERED                  FLOPPY
2016020000000IMNBCA0000OCTPAZ84829         34 07000          THE CORRESPONDING OFFENDER RECORD MUST BE PRESENT                              FLOPPY
2016020000802IMNBCA0000OCTPAZ8492  4   001 34 45900          NEED A CRIME AGAINST PERSON OR ROBBERY FOR DATA TO BE ENTERED                  FLOPPY
2016020000807IMNBCA0000OCTPAZ8493  4   001 34 45900          NEED A CRIME AGAINST PERSON OR ROBBERY FOR DATA TO BE ENTERED                  FLOPPY
2016020000812IMNBCA0000OCTPAZ84936 4   001 34 45900          NEED A CRIME AGAINST PERSON OR ROBBERY FOR DATA TO BE ENTERED                  FLOPPY
2016020000822IMNBCA0000OCTPAZ9292514   001 34 45800          VICTIM TYPE(25) MUST BE 'I' OR 'L' FOR DATA TO BE ENTERED                      FLOPPY
2016020000822IMNBCA0000OCTPAZ9292514   001 34 45900          NEED A CRIME AGAINST PERSON OR ROBBERY FOR DATA TO BE ENTERED                  FLOPPY
2016020000000IMNBCA0000OCTPAZ929251        34 07000          THE CORRESPONDING OFFENDER RECORD MUST BE PRESENT                              FLOPPY
2016020000828IMNBCA0000OCTPAZ9322  4   001 34 45900          NEED A CRIME AGAINST PERSON OR ROBBERY FOR DATA TO BE ENTERED                  FLOPPY
2016020000000IMNBCA0000OCTPAZ9322          34 07000          THE CORRESPONDING OFFENDER RECORD MUST BE PRESENT                              FLOPPY
2016020000834IMNBCA0000OCTPAZ9370  4   001 34 45900          NEED A CRIME AGAINST PERSON OR ROBBERY FOR DATA TO BE ENTERED                  FLOPPY
2016020000000IMNBCA0000OCTPAZ9370          34 07000          THE CORRESPONDING OFFENDER RECORD MUST BE PRESENT                              FLOPPY
2016020000854IMNBCA0000OCTPAZ94111 4   001 34 45900          NEED A CRIME AGAINST PERSON OR ROBBERY FOR DATA TO BE ENTERED                  FLOPPY
2016020000855IMNBCA0000OCTPAZ94111 4   002 34 45900          NEED A CRIME AGAINST PERSON OR ROBBERY FOR DATA TO BE ENTERED                  FLOPPY
2016020000860IMNBCA0000OCTPAZ94552 4   001 34 45900          NEED A CRIME AGAINST PERSON OR ROBBERY FOR DATA TO BE ENTERED                  FLOPPY
2016020000861IMNBCA0000OCTPAZ94552 4   002 34 45900          NEED A CRIME AGAINST PERSON OR ROBBERY FOR DATA TO BE ENTERED                  FLOPPY
2016020000866IMNBCA0000OCTPAZ9493  4   001 34 45800          VICTIM TYPE(25) MUST BE 'I' OR 'L' FOR DATA TO BE ENTERED                      FLOPPY
2016020000866IMNBCA0000OCTPAZ9493  4   001 34 45900          NEED A CRIME AGAINST PERSON OR ROBBERY FOR DATA TO BE ENTERED                  FLOPPY
2016020000000IMNBCA0000OCTPAZ9493          34 07000          THE CORRESPONDING OFFENDER RECORD MUST BE PRESENT                              FLOPPY
2016020000872IMNBCA0000OCTPAZ94932 4   001 34 45900          NEED A CRIME AGAINST PERSON OR ROBBERY FOR DATA TO BE ENTERED                  FLOPPY
2016020000873IMNBCA0000OCTPAZ94932 4   002 34 45900          NEED A CRIME AGAINST PERSON OR ROBBERY FOR DATA TO BE ENTERED                  FLOPPY
2016020000878IMNBCA0000OCTPAZ94964 4   001 34 45900          NEED A CRIME AGAINST PERSON OR ROBBERY FOR DATA TO BE ENTERED                  FLOPPY
2016020000879IMNBCA0000OCTPAZ94964 4   002 34 45900          NEED A CRIME AGAINST PERSON OR ROBBERY FOR DATA TO BE ENTERED                  FLOPPY
2016020000883IMNBCA0000OCTPAZ9552144   001 34 45800          VICTIM TYPE(25) MUST BE 'I' OR 'L' FOR DATA TO BE ENTERED                      FLOPPY
2016020000883IMNBCA0000OCTPAZ9552144   001 34 45900          NEED A CRIME AGAINST PERSON OR ROBBERY FOR DATA TO BE ENTERED                  FLOPPY
2016020000000IMNBCA0000OCTPAZ955214        34 07000          THE CORRESPONDING OFFENDER RECORD MUST BE PRESENT                              FLOPPY
2016020000888IMNBCA0000OCTPAZ9852144   001 34 45800          VICTIM TYPE(25) MUST BE 'I' OR 'L' FOR DATA TO BE ENTERED                      FLOPPY
2016020000888IMNBCA0000OCTPAZ9852144   001 34 45900          NEED A CRIME AGAINST PERSON OR ROBBERY FOR DATA TO BE ENTERED                  FLOPPY
2016020000000IMNBCA0000OCTPAZ985214        34 07000          THE CORRESPONDING OFFENDER RECORD MUST BE PRESENT                              FLOPPY
2016020000893IMNBCA0000OCTPAZ9900  4   001 34 45900          NEED A CRIME AGAINST PERSON OR ROBBERY FOR DATA TO BE ENTERED                  FLOPPY
2016020000000IMNBCA0000OCTPAZ9900          34 07000          THE CORRESPONDING OFFENDER RECORD MUST BE PRESENT                              FLOPPY
2016020000899IMNBCA0000OCTPAZ9901  4   001 34 45800          VICTIM TYPE(25) MUST BE 'I' OR 'L' FOR DATA TO BE ENTERED                      FLOPPY
2016020000899IMNBCA0000OCTPAZ9901  4   001 34 45900          NEED A CRIME AGAINST PERSON OR ROBBERY FOR DATA TO BE ENTERED                  FLOPPY
2016020000000IMNBCA0000OCTPAZ9901          34 07000          THE CORRESPONDING OFFENDER RECORD MUST BE PRESENT                              FLOPPY
2016020000905IMNBCA0000OCTPAZ9958  4   001 34 45900          NEED A CRIME AGAINST PERSON OR ROBBERY FOR DATA TO BE ENTERED                  FLOPPY
2016020000000IMNBCA0000OCTPAZ9958          34 07000          THE CORRESPONDING OFFENDER RECORD MUST BE PRESENT                              FLOPPY
2016020000911IMNBCA0000OCTTAR04832 4   001 34 45800          VICTIM TYPE(25) MUST BE 'I' OR 'L' FOR DATA TO BE ENTERED                      FLOPPY
2016020000911IMNBCA0000OCTTAR04832 4   001 34 45900          NEED A CRIME AGAINST PERSON OR ROBBERY FOR DATA TO BE ENTERED                  FLOPPY
2016020000000IMNBCA0000OCTTAR04832         34 07000          THE CORRESPONDING OFFENDER RECORD MUST BE PRESENT                              FLOPPY
2016020000917IMNBCA0000OCTTAR1275914   001 34 45900          NEED A CRIME AGAINST PERSON OR ROBBERY FOR DATA TO BE ENTERED                  FLOPPY
2016020000000IMNBCA0000OCTTAR127591        34 07000          THE CORRESPONDING OFFENDER RECORD MUST BE PRESENT                              FLOPPY
2016020000923IMNBCA0000OCTTAR1278914   001 34 45900          NEED A CRIME AGAINST PERSON OR ROBBERY FOR DATA TO BE ENTERED                  FLOPPY
2016020000000IMNBCA0000OCTTAR127891        34 07000          THE CORRESPONDING OFFENDER RECORD MUST BE PRESENT                              FLOPPY
2016020000930IMNBCA0000OCTTAR1778914   001 34 45900          NEED A CRIME AGAINST PERSON OR ROBBERY FOR DATA TO BE ENTERED                  FLOPPY
2016020000000IMNBCA0000OCTTAR177891        34 07000          THE CORRESPONDING OFFENDER RECORD MUST BE PRESENT                              FLOPPY
2016020000944IMNBCA0000OCTTAR7781994   001 34 45900          NEED A CRIME AGAINST PERSON OR ROBBERY FOR DATA TO BE ENTERED                  FLOPPY
2016020000000IMNBCA0000OCTTAR778199        34 07000          THE CORRESPONDING OFFENDER RECORD MUST BE PRESENT                              FLOPPY
2016020000949IMNBCA0000OCTTAR7788  4   001 34 45900          NEED A CRIME AGAINST PERSON OR ROBBERY FOR DATA TO BE ENTERED                  FLOPPY
2016020000000IMNBCA0000OCTTAR7788          34 07000          THE CORRESPONDING OFFENDER RECORD MUST BE PRESENT                              FLOPPY
2016020000954IMNBCA0000OCTTAR832   4   001 34 45800          VICTIM TYPE(25) MUST BE 'I' OR 'L' FOR DATA TO BE ENTERED                      FLOPPY
2016020000954IMNBCA0000OCTTAR832   4   001 34 45900          NEED A CRIME AGAINST PERSON OR ROBBERY FOR DATA TO BE ENTERED                  FLOPPY
2016020000000IMNBCA0000OCTTAR832           34 07000          THE CORRESPONDING OFFENDER RECORD MUST BE PRESENT                              FLOPPY
2016020000960IMNBCA0000OCTTAR8345284   001 34 45900          NEED A CRIME AGAINST PERSON OR ROBBERY FOR DATA TO BE ENTERED                  FLOPPY
2016020000965IMNBCA0000OCTTAR8764  4   001 34 45900          NEED A CRIME AGAINST PERSON OR ROBBERY FOR DATA TO BE ENTERED                  FLOPPY
2016020000969IMNBCA0000OCTTAR9552144   001 34 45800          VICTIM TYPE(25) MUST BE 'I' OR 'L' FOR DATA TO BE ENTERED                      FLOPPY
2016020000969IMNBCA0000OCTTAR9552144   001 34 45900          NEED A CRIME AGAINST PERSON OR ROBBERY FOR DATA TO BE ENTERED                  FLOPPY
2016020000000IMNBCA0000OCTTAR955214        34 07000          THE CORRESPONDING OFFENDER RECORD MUST BE PRESENT                              FLOPPY
2016020000974IMNBCA0000OCTTAR9852144   001 34 45800          VICTIM TYPE(25) MUST BE 'I' OR 'L' FOR DATA TO BE ENTERED                      FLOPPY
2016020000974IMNBCA0000OCTTAR9852144   001 34 45900          NEED A CRIME AGAINST PERSON OR ROBBERY FOR DATA TO BE ENTERED                  FLOPPY
2016020000000IMNBCA0000OCTTAR985214        34 07000          THE CORRESPONDING OFFENDER RECORD MUST BE PRESENT                              FLOPPY
2016020000984IMNBCA0000OCTTAR9901  4   001 34 45800          VICTIM TYPE(25) MUST BE 'I' OR 'L' FOR DATA TO BE ENTERED                      FLOPPY
2016020000984IMNBCA0000OCTTAR9901  4   001 34 45900          NEED A CRIME AGAINST PERSON OR ROBBERY FOR DATA TO BE ENTERED                  FLOPPY
2016020000000IMNBCA0000OCTTAR9901          34 07000          THE CORRESPONDING OFFENDER RECORD MUST BE PRESENT                              FLOPPY
2016020000987IMN0500200OCTTARUN111 1       03 17320150901    INCIDENT DATE CAN NOT BE BEFORE DATE ORI WENT IBR 20151001                     FLOPPY
2016020001004IMN0500200OCTTARUN113 1       03 17320150727    INCIDENT DATE CAN NOT BE BEFORE DATE ORI WENT IBR 20151001                     FLOPPY
2016020001032IMNBCA0000OCTTARUN15  4   001 34 45900          NEED A CRIME AGAINST PERSON OR ROBBERY FOR DATA TO BE ENTERED                  FLOPPY
2016020000000IMNBCA0000OCTTARUN15          34 07000          THE CORRESPONDING OFFENDER RECORD MUST BE PRESENT                              FLOPPY
2016020001039IMNBCA0000OCTTARUN22  4   001 34 45900          NEED A CRIME AGAINST PERSON OR ROBBERY FOR DATA TO BE ENTERED                  FLOPPY
2016020000000IMNBCA0000OCTTARUN22          34 07000          THE CORRESPONDING OFFENDER RECORD MUST BE PRESENT                              FLOPPY
2016020001045IMNBCA0000OCTTARUN23  4   001 34 45900          NEED A CRIME AGAINST PERSON OR ROBBERY FOR DATA TO BE ENTERED                  FLOPPY
2016020000000IMNBCA0000OCTTARUN23          34 07000          THE CORRESPONDING OFFENDER RECORD MUST BE PRESENT                              FLOPPY
2016020001050IMNBCA0000OCTTARUN26  4   001 34 45800          VICTIM TYPE(25) MUST BE 'I' OR 'L' FOR DATA TO BE ENTERED                      FLOPPY
2016020001050IMNBCA0000OCTTARUN26  4   001 34 45900          NEED A CRIME AGAINST PERSON OR ROBBERY FOR DATA TO BE ENTERED                  FLOPPY
2016020000000IMNBCA0000OCTTARUN26          34 07000          THE CORRESPONDING OFFENDER RECORD MUST BE PRESENT                              FLOPPY
2016020001056IMNBCA0000OCTTARUN27  4   001 34 45800          VICTIM TYPE(25) MUST BE 'I' OR 'L' FOR DATA TO BE ENTERED                      FLOPPY
2016020001056IMNBCA0000OCTTARUN27  4   001 34 45900          NEED A CRIME AGAINST PERSON OR ROBBERY FOR DATA TO BE ENTERED                  FLOPPY
2016020000000IMNBCA0000OCTTARUN27          34 07000          THE CORRESPONDING OFFENDER RECORD MUST BE PRESENT                              FLOPPY
2016020001062IMNBCA0000OCTTARUN28  4   001 34 45800          VICTIM TYPE(25) MUST BE 'I' OR 'L' FOR DATA TO BE ENTERED                      FLOPPY
2016020001062IMNBCA0000OCTTARUN28  4   001 34 45900          NEED A CRIME AGAINST PERSON OR ROBBERY FOR DATA TO BE ENTERED                  FLOPPY
2016020000000IMNBCA0000OCTTARUN28          34 07000          THE CORRESPONDING OFFENDER RECORD MUST BE PRESENT                              FLOPPY
2016020001069IMNBCA0000OCTTARUN29  4   001 34 45800          VICTIM TYPE(25) MUST BE 'I' OR 'L' FOR DATA TO BE ENTERED                      FLOPPY
2016020001069IMNBCA0000OCTTARUN29  4   001 34 45900          NEED A CRIME AGAINST PERSON OR ROBBERY FOR DATA TO BE ENTERED                  FLOPPY
2016020000000IMNBCA0000OCTTARUN29          34 07000          THE CORRESPONDING OFFENDER RECORD MUST BE PRESENT                              FLOPPY
2016020000000IMNBCA0000OCTTARUN43          34 470VO          WHEN 'VO' RELATIONSHIP IS PRESENT, MUST HAVE TWO OR MORE VICTIMS AND OFFENDERS FLOPPY
2016020001103IMNBCA0000OCTTARUN66  4   001 34 45900          NEED A CRIME AGAINST PERSON OR ROBBERY FOR DATA TO BE ENTERED                  FLOPPY
2016020000000IMNBCA0000OCTTARUN66          34 07000          THE CORRESPONDING OFFENDER RECORD MUST BE PRESENT                              FLOPPY
2016020001111IMNBCA0000OCTTARUN67  4   001 34 45900          NEED A CRIME AGAINST PERSON OR ROBBERY FOR DATA TO BE ENTERED                  FLOPPY
2016020000000IMNBCA0000OCTTARUN67          34 07000          THE CORRESPONDING OFFENDER RECORD MUST BE PRESENT                              FLOPPY
2016020001119IMNBCA0000OCTTARUN73  4   001 34 45900          NEED A CRIME AGAINST PERSON OR ROBBERY FOR DATA TO BE ENTERED                  FLOPPY
2016020000000IMNBCA0000OCTTARUN73          34 07000          THE CORRESPONDING OFFENDER RECORD MUST BE PRESENT                              FLOPPY
2016020001135IMNBCA0000OCTTARUN96  4   001 34 45900          NEED A CRIME AGAINST PERSON OR ROBBERY FOR DATA TO BE ENTERED                  FLOPPY
2016020000000IMNBCA0000OCTTARUN96          34 07000          THE CORRESPONDING OFFENDER RECORD MUST BE PRESENT                              FLOPPY
2016020001141IMNBCA0000OCTTARUN97  4   001 34 45900          NEED A CRIME AGAINST PERSON OR ROBBERY FOR DATA TO BE ENTERED                  FLOPPY
2016020000000IMNBCA0000OCTTARUN97          34 07000          THE CORRESPONDING OFFENDER RECORD MUST BE PRESENT                              FLOPPY
              999999999                                      FBI PROCESSED DISKETTE ON 03/23/16
